:020000040000fa
:080000000001040000000000f3
:020000040000fa
:04000800e60200000c
:020000040000fa
:04000c00f8020000f6
:020000040000fa
:0400100008030000e1
:020000040000fa
:04001400ee020000f8
:020000040000fa
:0400180000030000e1
:020000040000fa
:04001c003e0300009f
:020000040000fa
:040020003e0300009b
:020000040000fa
:040024003e03000097
:020000040000fa
:040028003e03000093
:020000040000fa
:04002c003e0300008f
:020000040000fa
:040030003e0300008b
:020000040000fa
:040034003e03000087
:020000040000fa
:040038003e03000083
:020000040000fa
:04003c003e0300007f
:020000040000fa
:040040003e0300007b
:020000040000fa
:04004400b8020000fe
:020000040000fa
:0400480010030000a1
:020000040000fa
:04004c003e0300006f
:020000040000fa
:040050003e0300006b
:020000040000fa
:040054003e03000067
:020000040000fa
:040058003e03000063
:020000040000fa
:04005c003e0300005f
:020000040000fa
:040060003e0300005b
:020000040000fa
:040064003e03000057
:020000040000fa
:040068003e03000053
:020000040000fa
:04006c003e0300004f
:020000040000fa
:040070003e0300004b
:020000040000fa
:040074003e03000047
:020000040000fa
:040078003e03000043
:020000040000fa
:04007c003e0300003f
:020000040000fa
:040080003e0300003b
:020000040000fa
:040084003e03000037
:020000040000fa
:040088003e03000033
:020000040000fa
:04008c003e0300002f
:020000040000fa
:040090003e0300002b
:020000040000fa
:040094003e03000027
:020000040000fa
:040098003e03000023
:020000040000fa
:04009c003e0300001f
:020000040000fa
:0400a0003202000028
:020000040000fa
:0400a4001402000042
:020000040000fa
:0400a8003e03000013
:020000040000fa
:0400ac003e0300000f
:020000040000fa
:0400b0003e0300000b
:020000040000fa
:0400b4003e03000007
:020000040000fa
:0400b8003e03000003
:020000040000fa
:0400bc003e030000ff
:020000040000fa
:0400c0003e030000fb
:020000040000fa
:0400c4003e030000f7
:020000040000fa
:0400c8003e030000f3
:020000040000fa
:0400cc003e030000ef
:020000040000fa
:0400d0003e030000eb
:020000040000fa
:0400d4003e030000e7
:020000040000fa
:0400d8003e030000e3
:020000040000fa
:0400dc003e030000df
:020000040000fa
:0400e0003e030000db
:020000040000fa
:0400e4003e030000d7
:020000040000fa
:0400e8003e030000d3
:020000040000fa
:0400ec003e030000cf
:020000040000fa
:0400f0003e030000cb
:020000040000fa
:0400f4003e030000c7
:020000040000fa
:0400f8003e030000c3
:020000040000fa
:0400fc003e030000bf
:020000040000fa
:040100003e030000ba
:020000040000fa
:040104003e030000b6
:020000040000fa
:040108003e030000b2
:020000040000fa
:04010c003e030000ae
:020000040000fa
:040110003e030000aa
:020000040000fa
:040114003e030000a6
:020000040000fa
:040118003e030000a2
:020000040000fa
:04011c003e0300009e
:020000040000fa
:040120003e0300009a
:020000040000fa
:040124003e03000096
:020000040000fa
:040128003e03000092
:020000040000fa
:04012c003e0300008e
:020000040000fa
:040130005002000079
:020000040000fa
:040134003e03000086
:020000040000fa
:040138003e03000082
:020000040000fa
:04013c003e0300007e
:020000040000fa
:040140003e0300007a
:020000040000fa
:040144003e03000076
:020000040000fa
:040148003e03000072
:020000040000fa
:04014c003e0300006e
:020000040000fa
:040150003e0300006a
:020000040000fa
:040154003e03000066
:020000040000fa
:040158003e03000062
:020000040000fa
:04015c003e0300005e
:020000040000fa
:040160003e0300005a
:020000040000fa
:040164003e03000056
:020000040000fa
:040168003e03000052
:020000040000fa
:04016c00a2020000eb
:020000040000fa
:040170008402000005
:020000040000fa
:04017400660200001f
:020000040000fa
:040178003e03000042
:020000040000fa
:04017c003e0300003e
:020000040000fa
:040180003e0300003a
:020000040000fa
:040184003e03000036
:020000040000fa
:040188003e03000032
:020000040000fa
:04018c003e0300002e
:020000040000fa
:040190003e0300002a
:020000040000fa
:040194003e03000026
:020000040000fa
:040198003e03000022
:020000040000fa
:04019c003e0300001e
:020000040000fa
:0401a0003e0300001a
:020000040000fa
:0401a4003e03000016
:020000040000fa
:0401a8003e03000012
:020000040000fa
:0401ac003e0300000e
:020000040000fa
:0401b0003e0300000a
:020000040000fa
:0401b4003e03000006
:020000040000fa
:0401b8003e03000002
:020000040000fa
:0401bc003e030000fe
:020000040000fa
:0401c0003e030000fa
:020000040000fa
:0401c4003e030000f6
:020000040000fa
:0401c8003e030000f2
:020000040000fa
:0401cc003e030000ee
:020000040000fa
:0401d0003e030000ea
:020000040000fa
:0401d4003e030000e6
:020000040000fa
:0401d8003e030000e2
:020000040000fa
:0401dc003e030000de
:020000040000fa
:0401e0003e030000da
:020000040000fa
:0401e4003e030000d6
:020000040000fa
:0401e8003e030000d2
:020000040000fa
:0401ec003e030000ce
:020000040000fa
:0401f0003e030000ca
:020000040000fa
:0401f4003e030000c6
:020000040000fa
:0401f8003e030000c2
:020000040000fa
:0401fc003e030000be
:020000040000fa
:100200002f8620000eff27000e018800000000004e
:10021000000020000000e000020032000001200089
:100220002002880014000700160107000000e0000b
:1002300003003a00e0b42000010020000200370073
:100240000000200001002000810f7000010032003a
:1002500014000700000020000000e000020032004f
:100260000000020000000000980b020000000000e7
:100270000040da000000fe004440a90020002000f9
:100280000000e00003003200100020009001880010
:100290004440a800000006008a1f78008b1f7800e9
:1002a00000000600a1028800800478000000eb0036
:1002b0001f003700e284440054a0b4009905ba003e
:1002c000e284440054a0b4009906ba00e2844400d9
:1002d00054a0b4000006eb00476fde00fd07b2003b
:1002e000ae018800636ce10003003a00eaff0700fa
:1002f0000000eb000e003700606ce10008003a00df
:10030000004deb000a05e800020039003420ec0043
:100310000af0a0008b05e900f9ff3e000400370059
:100320006168e100010032000086eb000b0007006d
:1003300019c7ba001905ba000e04e00003003a001c
:100340000a00e000dbff3a0000000600fe07b200f2
:10035000ae0288008a047800f5ff37000cd0a300b5
:10036000e20f4d001c00390089027800354dba00bb
:100370000a05e800020039003420ec000af0a00071
:100380008b05e9000f003200254dba000a05e80090
:10039000020039003420ec000af0a0008b05e900cf
:1003a000080032000c00e0000600320015cdba0053
:1003b0000a05e800020039003420ec000af0a00031
:1003c0008b05e9008984e80054a0b4000b00e0002c
:1003d000e2ff3a00000006009902ba00055d7800cd
:1003e0008b05e900f7ff3200c82ade00055d7800c2
:1003f0008b05e900f3ff32000c00e000f1ff320052
:1004000019ddba00eeff3700fc0304000000000015
:100410009c03040000000000e80604000000000047
:1004200088060400000000003600f800809fbe002f
:10043000829fbe00849fbe00869fbe000000fa001f
:1004400000408000000001000080fa004f03be0061
:100450004f02be004f01be004f00be003600f90043
:10046000004006003600f800809fbe00829fbe005c
:10047000849fbe00869fbe000000fa0010408000ee
:10048000000001000080fa004f03be004f02be00d2
:100490004f01be004f00be003600f90000400600cc
:1004a000801f78000000fa00801d8000620060005c
:1004b0000000e00001003200b023a9009040a90034
:1004c0000080fa004f007800004006003600f80077
:1004d000809fbe00829fbe00849fbe00869fbe009c
:1004e0000000fa0020408000000001000080fa00b7
:1004f0004f03be004f02be004f01be004f00be00c2
:100500003600f900004006003600f800809fbe006b
:10051000829fbe00849fbe00869fbe000000fa003e
:1005200030408000000001000080fa004f03be0050
:100530004f02be004f01be004f00be003600f90062
:1005400000400600801f78000000fa00301e800086
:10055000620060000000e00001003200c623a90034
:100560009220a9000080fa004f00780000400600a9
:100570003600f800809fbe00829fbe00849fbe00b0
:10058000869fbe000000fa0052030700f08520009d
:10059000104078008040e800f08520000148780095
:1005a000e085200011c0b3000148780088e0a90070
:1005b0000080fa004f03be004f02be004f01be0094
:1005c0004f00be003600f900004006003600f8007b
:1005d0008020a9000000eb004a0407003600f80064
:1005e0004c0407008040a9001000200045040700cb
:1005f0003600f8008060a9002000200041040700b8
:100600003600f8008080a900300020003d0407007b
:100610003600f8008600a9007000200039040700a9
:100620003600f800809fbe00829fbe00849fbe00ff
:10063000869fbe000000fa007503070010862000a8
:10064000104078008040e8001086200001487800c3
:100650000086200011c0b300014878008900a9007d
:100660000080fa004f03be004f02be004f01be00e3
:100670004f00be003600f900004006000040da00de
:080680000000fe00000005006f
:020000040000fa
:100688000000fa0080002000701d8800b023ef00f1
:1006980020022000b01d8800b823ef009bc0a800ee
:1006a800c03f20004c000700c03920001a00070096
:1006b800afe3a800b143a800408320008041880030
:1006c8004083200070418800c0832000604188007a
:1006d800c083200050418800904180000010a00095
:1006e80090418800904180000090a00090418800cf
:1006f80091418000f0ef2f00008060009041880059
:1007080091418000e0ff2f00008060009041880048
:100718000080fa00000006000200fa00000f7800ce
:100728001e007800004088000080fa0000000600e3
:100738000000fa0091418000002020000080600045
:100748000000e000020032009be0a9002000370012
:100758008be0a90019003700804180001040780024
:100768000080fb00901d8800804180000000e800a8
:100778008041880081418000c0832000808f500024
:1007880002003a00408320008041880091418000a7
:10079800f0ef2f00008060009041880081418000c8
:1007a80070418000808f500004003a009041800022
:1007b8000090a0009041880005003700811d80004e
:1007c80000202000008060000000e000e2ff32000e
:1007d8000080fa00000006000200fa00000f78000e
:1007e8001e007800104088000080fa000000060013
:1007f8000000fa001900370050418000a11d800058
:100808008140780001487800504180000000e800ed
:10081800504188005141800040842000808f500062
:1008280002003a00c08320005041880091418000b6
:10083800d0ff2f0000806000904188005141800067
:1008480060418000808f500004003a009041800091
:100858000000a0009041880004003700801d80003f
:10086800610060000000e000e3ff3a008bc0a900cf
:100878000080fa00000006000200fa000040eb00c9
:10088800004f780060418000104f78006041800080
:100898000000e80060418800614180004084200039
:1008a800808f500002003a00c08320006041880019
:1008b8006141800050418000808f500003003a0061
:1008c800904180000010a000904188009141800074
:1008d800e0ff2f0000806000904188001e407800f3
:1008e8000080fa00000006000600fa00881f780061
:1008f80010079800210798000000eb00000f78000f
:100908000900370090418000620060000000e000ac
:100918000a003a001e0090001e044000d6ff07009f
:10092800004c78001e0fe8002e0090009e00780012
:10093800808f5000f3ff39000100370000000000ed
:100948001e0078004f0478000080fa0000000600be
:100958000200fa00004f78009be0a9007041800077
:100968001e487800704180000000e800704188004f
:1009780071418000c0832000808f500002003a003f
:10098800408320007041880091418000f0df2f00f3
:1009980000806000904188008141800070418000a3
:1009a800808f500003003a00904180000080a00032
:1009b800904188009be0a8000080fa000000060033
:1009c8000600fa0010079800210798000000eb00c5
:1009d800000f78000a0037009141800000102000c5
:1009e800008060000000e0000a003a001e0090004d
:1009f8001e004000104078001e0fe800d4ff0700da
:100a08002e0090009e007800808f5000f2ff390081
:100a180001003700000000001e0078000080fa0086
:100a2800000006000200fa000000eb00000f78004a
:100a38009141800000102000008060000000e0006c
:100a4800010032001e30a0009141800000202000eb
:100a5800008060000000e000010032001e40a0009d
:100a680090418000610060000000e0000100320059
:100a78001e00a00090418000620060000000e000bd
:100a8800020032001e20a000010037001e10a00046
:100a98001e0078000080fa00000006000200fa003c
:100aa800000f7800604180009e00400040842000d4
:100ab800808f500008003600604180009e00400092
:100ac800408420000000ea0000804000c18320002c
:100ad8006140780003003700604180001e0040003c
:100ae800104078000080fa00000006000000fa00bc
:100af80090418000610060000000e00011003a00b1
:100b08006141800050418000808f5000060036000f
:100b180060418000804078005041800000407800ab
:100b280000c0500008003700604180008040780015
:100b3800504180000040780000c0500068404000ec
:100b4800010037000040eb000080fa0000000600ba
:100b58000000fa0091418000001020000080600031
:100b68000000e00011003a008141800070418000df
:100b7800808f500006003600804180008040780059
:100b8800704180000040780000c050000800370025
:100b980080418000804078007041800000407800eb
:100ba80000c0500068404000010037000040eb00e2
:100bb8000080fa00000006000000fa009041800062
:100bc8000000d100614060000080fb0000f0a70039
:100bd8000000ea000000ea004f00de000040780054
:100be8000080fa00000006000000fa009041800032
:100bf8004800de00614060000080fb0000f0a700b4
:100c08000000ea000000ea004f00de000040780023
:100c18000080fa00000006000000fa00801d800035
:100c28000080fa00000006000000fa00801d800025
:100c38004800de00614060000080fb0000f0a70073
:100c48000000ea000000ea004f00de0000407800e3
:100c58000080fa00000006000000fa008000200072
:100c6800201e8800c623ef0000012000601e8800b7
:100c7800ce23ef00a240a800806e20004c000700a1
:100c8800806820001a000700c5e3a800c743a80031
:100c9800e084200050428800e08420004042880020
:100ca800608520003042880060852000204288004e
:100cb800604280000010a00060428800604280000e
:100cc8000090a0006042880061428000f0ef2f0091
:100cd800008060006042880061428000e0ff2f00d1
:100ce80000806000604288000080fa000000060072
:100cf8000200fa00000f78001e00780020408800eb
:100d08000080fa00000006000000fa00614280003e
:100d180000202000008060000000e0000200320097
:100d2800a260a900200037009260a90019003700ce
:100d380050428000104078000080fb00401e880070
:100d4800504280000000e800504288005142800074
:100d580060852000808f500002003a00e084200067
:100d68005042880061428000f0ef2f000080600050
:100d7800604288005142800040428000808f5000cd
:100d880004003a00604280000090a00060428800a1
:100d980005003700311e8000002020000080600020
:100da8000000e000e2ff32000080fa0000000600c8
:100db8000200fa00000f78001e007800304088001a
:100dc8000080fa00000006000000fa001900370051
:100dd80020428000511e8000814078000148780040
:100de800204280000000e800204288002142800064
:100df800e0852000808f500002003a0060852000c6
:100e08002042880061428000d0ff2f0000806000ef
:100e1800604288002142800030428000808f50006c
:100e280004003a00604280000000a0006042880090
:100e380004003700301e8000610060000000e00000
:100e4800e3ff3a009240a9000080fa000000060083
:100e58000200fa000040eb00004f780030428000aa
:100e6800104f7800304280000000e80030428800cf
:100e780031428000e0852000808f500002003a0057
:100e88006085200030428800314280002042800086
:100e9800808f500003003a00604280000010a000dc
:100ea8006042880061428000e0ff2f0000806000ff
:100eb800604288001e4078000080fa0000000600aa
:100ec8000600fa00881f780010079800210798008c
:100ed8000000eb00000f7800090037006042800036
:100ee800620060000000e0000a003a001e00900066
:100ef8001e044000d6ff0700004c78001e0fe800d3
:100f08002e0090009e007800808f5000f3ff39007b
:100f180001003700000000001e0078004f04780030
:100f28000080fa00000006000200fa00004f780076
:100f3800a260a900404280001e487800404280001c
:100f48000000e8004042880041428000608520009f
:100f5800808f500002003a00e08420004042880060
:100f680061428000f0df2f0000806000604288004e
:100f78005142800040428000808f500003003a00b8
:100f8800604280000080a00060428800a260a80043
:100f98000080fa00000006000600fa00100798001a
:100fa800210798000000eb00000f78000a003700c6
:100fb8006142800000102000008060000000e00016
:100fc8000a003a001e0090001e0040001040780001
:100fd8001e0fe800d4ff07002e0090009e00780046
:100fe800808f5000f2ff3900010037000000000038
:100ff8001e0078000080fa00000006000200fa00d7
:101008000000eb00000f7800614280000010200013
:10101800008060000000e000010032001e30a000e7
:101028006142800000202000008060000000e00095
:10103800010032001e40a000604280006100600094
:101048000000e000010032001e00a00060428000a5
:10105800620060000000e000020032001e20a000d4
:10106800010037001e10a0001e0078000080fa0062
:10107800000006000200fa00000f780030428000ed
:101088009e004000e0852000808f50000800360058
:10109800304280009e004000e08520000000ea0009
:1010a800008040006185200061407800030037001f
:1010b800304280001e004000104078000080fa0096
:1010c800000006000000fa00604280006100600035
:1010d8000000e00011003a00314280002042800008
:1010e800808f500006003600304280008040780033
:1010f800204280000040780000c0500008003700ff
:101108003042800080407800204280000040780013
:1011180000c0500068404000010037000040eb006c
:101128000080fa00000006000000fa00614280001a
:1011380000102000008060000000e00011003a006c
:101148005142800040428000808f500006003600e7
:101158005042800080407800404280000040780083
:1011680000c05000080037005042800080407800de
:10117800404280000040780000c0500068404000b5
:10118800010037000040eb000080fa000000060074
:101198000000fa00604280000000d1006140600059
:1011a8000080fb0000f0a7000000ea000000ea0051
:1011b8004f00de00004078000080fa0000000600c2
:1011c8000000fa00604280004800de0061406000d4
:1011d8000080fb0000f0a7000000ea000000ea0021
:1011e8004f00de00004078000080fa000000060092
:1011f8000000fa00301e80000080fa00000006009f
:101208000000fa00301e80004800de0061406000e7
:101218000080fb0000f0a7000000ea000000ea00e0
:101228004f00de00004078000080fa000000060051
:101238000000fa009621ef00400d2300e00c880022
:1012480000022800000d880088e0a90098e0a800a6
:10125800e08520008040eb00014878000080fa001b
:10126800000006000200fa00000f78009e007800d7
:10127800e10c8800e08520008040eb000148780000
:101288000080fa00000006000000fa00e00c800070
:101298000080fa00000006000200fa00000f780043
:1012a8009e007800b10c8800e08520008040eb00ab
:1012b800014878000080fa00000006000000fa00eb
:1012c800b00c80000080fa00000006000000fa0060
:1012d8000080fa00000006000000fa00e085200007
:1012e8008040eb000148780098e0a800a1e1a80040
:1012f8000080fa00000006000000fa00a1e1a90041
:1013080098e0a9000080fa00000006000200fa0038
:10131800e0852000104f78001e4078000004e000af
:1013280003003200e08520008040eb00014878008f
:101338001e4078000080fa00000006000000fa0055
:10134800f0852000104078000080fb000080fa0043
:10135800000006000000fa00f08520008040eb0045
:10136800014878000080fa00000006000000fa003a
:101378009a21ef0000f42100f00c880000002800fa
:10138800100d88008900a9009900a8000086200097
:101398008040eb00014878000080fa000000060059
:1013a8000200fa00000f78009e007800f10c880017
:1013b800008620008040eb00014878000080fa0099
:1013c800000006000000fa00f00c80000080fa001f
:1013d800000006000200fa00000f78009e00780066
:1013e800d10c8800008620008040eb00014878007e
:1013f8000080fa00000006000000fa00d00c80000f
:101408000080fa00000006000000fa000080fa00e0
:10141800000006000000fa00008620008040eb0073
:10142800014878009900a800a3e1a8000080fa000c
:10143800000006000000fa00a3e1a9009900a90035
:101448000080fa00000006000200fa000086200072
:10145800104f78001e4078000004e00003003200be
:10146800008620008040eb00014878001e4078008c
:101478000080fa00000006000000fa001086200034
:10148800104078000080fb000080fa000000060091
:101498000000fa00108620008040eb000148780028
:1014a8000080fa00000006000000fa007a26ef002b
:1014b8008e26ef00a226ef00b626ef00ca26ef0020
:1014c800de26ef000080eb00b033880000002f001c
:1014d80050348800f0ff2000f0348800f00f20001e
:1014e80090358800f007200030368800c03c200086
:1014f800d03688008826ef009c26ef00b026ef0043
:10150800c426ef00d826ef00ec26ef008626ef0071
:101518009a26ef00ae26ef00c226ef00d626ef008f
:10152800ea26ef007c26ef009026ef00a426ef00c5
:10153800b826ef00cc26ef00e026ef00c0ff2f0012
:10154800f03388000000260090348800000c20004a
:101558003035880000012000d0358800003c20008c
:10156800103788000080fa00000006000000fa002a
:1015780041068000f08f2f00008060000080a000ee
:1015880040068800b1058000f0ff28000080600058
:1015980000c0a000b0058800b1058000f08f2f00c2
:1015a800008060000080a000b005880081068000ef
:1015b800f0f82f00008060000040a000800688003e
:1015c80081068000f0ff28000080600000c0a000b5
:1015d8008006880081068000f08f2f000080600060
:1015e8000080a000800688006105800080ff2f0031
:1015f800008060000000a0006005880051058000a0
:10160800f0ff28000080600000c0a000500588009e
:101618000080fa00000006000000fa00a2ff0700a0
:10162800d2ff07000600070015fc07008afd070027
:101638004eff0700fefe07000080fa0000000600cb
:101648000000fa000001eb00600420007105200092
:101658000310200080497800814978008249780089
:1016680000042300100888000621ef006821ef001d
:101678006a21ef006c21ef000821ef0000702000c4
:10168800500888000c21ef000e21ef000080fa00be
:041698000000060048
:020000040000fa
:10169c002a0800001a00000080000000000800006a
:1016ac000400000080000000440800001a00000044
:1016bc00800000000408000004000000800000000e
:1016cc005e08000002000000800000000a08000014
:1016dc00200000008000000008080000020000004c
:1016ec0082000000ffff0000600800000200000004
:0816fc00800000000000000066
:020000040000fa
:10170400000f78009e00780041408800ffff3700fa
:101714000000fa00a08020008007780020822000ca
:10172400000188000080fa00000006000000fa00b2
:08173400baff0700ffff3700b8
:020000040000fa
:020000040015e5
:047e0000ffff000080
:020000040000fa
:020000040015e5
:047e2000ff1f000040
:020000040000fa
:020000040015e5
:047e30008bffff00c5
:020000040000fa
:020000040015e5
:047e3800b1ffff0097
:020000040000fa
:020000040015e5
:047e40009fffff00a1
:020000040000fa
:020000040015e5
:047e4800ffffff0039
:020000040000fa
:020000040015e5
:047e5000dfffff0051
:020000040000fa
:020000040015e5
:047e5800efffff0039
:020000040000fa
:020000040100f9
:04300000ffffff00cf
:00000001FF
